{
  "_format": "hh-sol-artifact-1",
  "contractName": "election",
  "sourceName": "contracts/election.sol",
  "abi": [
    {
      "inputs": [
        {
          "internalType": "uint256",
          "name": "_id",
          "type": "uint256"
        }
      ],
      "name": "Vote",
      "outputs": [],
      "stateMutability": "nonpayable",
      "type": "function"
    },
    {
      "inputs": [
        {
          "internalType": "string",
          "name": "_name",
          "type": "string"
        }
      ],
      "name": "asCandidate",
      "outputs": [
        {
          "internalType": "bool",
          "name": "",
          "type": "bool"
        }
      ],
      "stateMutability": "nonpayable",
      "type": "function"
    },
    {
      "inputs": [
        {
          "internalType": "string",
          "name": "_name",
          "type": "string"
        }
      ],
      "name": "asVoter",
      "outputs": [
        {
          "internalType": "bool",
          "name": "",
          "type": "bool"
        }
      ],
      "stateMutability": "nonpayable",
      "type": "function"
    },
    {
      "inputs": [],
      "name": "viewCount",
      "outputs": [
        {
          "components": [
            {
              "internalType": "string",
              "name": "name",
              "type": "string"
            },
            {
              "internalType": "address",
              "name": "wallet",
              "type": "address"
            },
            {
              "internalType": "uint256",
              "name": "idCount",
              "type": "uint256"
            },
            {
              "internalType": "uint256",
              "name": "count",
              "type": "uint256"
            }
          ],
          "internalType": "struct election.candidate[]",
          "name": "",
          "type": "tuple[]"
        }
      ],
      "stateMutability": "view",
      "type": "function"
    }
  ],
  "bytecode": "0x6080604052600060035534801561001557600080fd5b50610eab806100256000396000f3fe608060405234801561001057600080fd5b506004361061004c5760003560e01c806337d6d7bc146100515780635348303f14610081578063ccac03ed146100b1578063dcd6a5cd146100cf575b600080fd5b61006b6004803603810190610066919061080d565b6100eb565b6040516100789190610871565b60405180910390f35b61009b6004803603810190610096919061080d565b610333565b6040516100a89190610871565b60405180910390f35b6100b9610489565b6040516100c69190610a8a565b60405180910390f35b6100e960048036038101906100e49190610ad8565b6105e4565b005b600060011515600260003373ffffffffffffffffffffffffffffffffffffffff1673ffffffffffffffffffffffffffffffffffffffff16815260200190815260200160002060009054906101000a900460ff1615150361014e576000905061032e565b81600160003373ffffffffffffffffffffffffffffffffffffffff1673ffffffffffffffffffffffffffffffffffffffff168152602001908152602001600020908161019a9190610d11565b5060016000803373ffffffffffffffffffffffffffffffffffffffff1673ffffffffffffffffffffffffffffffffffffffff16815260200190815260200160002081905550600460405180608001604052808481526020013373ffffffffffffffffffffffffffffffffffffffff16815260200160035481526020016000815250908060018154018082558091505060019003906000526020600020906004020160009091909190915060008201518160000190816102599190610d11565b5060208201518160010160006101000a81548173ffffffffffffffffffffffffffffffffffffffff021916908373ffffffffffffffffffffffffffffffffffffffff160217905550604082015181600201556060820151816003015550506001600360008282546102ca9190610e12565b925050819055506001600260003373ffffffffffffffffffffffffffffffffffffffff1673ffffffffffffffffffffffffffffffffffffffff16815260200190815260200160002060006101000a81548160ff021916908315150217905550600190505b919050565b600060011515600260003373ffffffffffffffffffffffffffffffffffffffff1673ffffffffffffffffffffffffffffffffffffffff16815260200190815260200160002060009054906101000a900460ff161515036103965760009050610484565b60016000803373ffffffffffffffffffffffffffffffffffffffff1673ffffffffffffffffffffffffffffffffffffffff1681526020019081526020016000208190555081600160003373ffffffffffffffffffffffffffffffffffffffff1673ffffffffffffffffffffffffffffffffffffffff16815260200190815260200160002090816104269190610d11565b506001600260003373ffffffffffffffffffffffffffffffffffffffff1673ffffffffffffffffffffffffffffffffffffffff16815260200190815260200160002060006101000a81548160ff021916908315150217905550600190505b919050565b60606004805480602002602001604051908101604052809291908181526020016000905b828210156105db57838290600052602060002090600402016040518060800160405290816000820180546104e090610b34565b80601f016020809104026020016040519081016040528092919081815260200182805461050c90610b34565b80156105595780601f1061052e57610100808354040283529160200191610559565b820191906000526020600020905b81548152906001019060200180831161053c57829003601f168201915b505050505081526020016001820160009054906101000a900473ffffffffffffffffffffffffffffffffffffffff1673ffffffffffffffffffffffffffffffffffffffff1673ffffffffffffffffffffffffffffffffffffffff16815260200160028201548152602001600382015481525050815260200190600101906104ad565b50505050905090565b60008060003373ffffffffffffffffffffffffffffffffffffffff1673ffffffffffffffffffffffffffffffffffffffff168152602001908152602001600020541161062f57600080fd5b60016004828154811061064557610644610e46565b5b906000526020600020906004020160030160008282546106659190610e12565b9250508190555060008060003373ffffffffffffffffffffffffffffffffffffffff1673ffffffffffffffffffffffffffffffffffffffff1681526020019081526020016000208190555050565b6000604051905090565b600080fd5b600080fd5b600080fd5b600080fd5b6000601f19601f8301169050919050565b7f4e487b7100000000000000000000000000000000000000000000000000000000600052604160045260246000fd5b61071a826106d1565b810181811067ffffffffffffffff82111715610739576107386106e2565b5b80604052505050565b600061074c6106b3565b90506107588282610711565b919050565b600067ffffffffffffffff821115610778576107776106e2565b5b610781826106d1565b9050602081019050919050565b82818337600083830152505050565b60006107b06107ab8461075d565b610742565b9050828152602081018484840111156107cc576107cb6106cc565b5b6107d784828561078e565b509392505050565b600082601f8301126107f4576107f36106c7565b5b813561080484826020860161079d565b91505092915050565b600060208284031215610823576108226106bd565b5b600082013567ffffffffffffffff811115610841576108406106c2565b5b61084d848285016107df565b91505092915050565b60008115159050919050565b61086b81610856565b82525050565b60006020820190506108866000830184610862565b92915050565b600081519050919050565b600082825260208201905092915050565b6000819050602082019050919050565b600081519050919050565b600082825260208201905092915050565b60005b838110156108f25780820151818401526020810190506108d7565b60008484015250505050565b6000610909826108b8565b61091381856108c3565b93506109238185602086016108d4565b61092c816106d1565b840191505092915050565b600073ffffffffffffffffffffffffffffffffffffffff82169050919050565b600061096282610937565b9050919050565b61097281610957565b82525050565b6000819050919050565b61098b81610978565b82525050565b600060808301600083015184820360008601526109ae82826108fe565b91505060208301516109c36020860182610969565b5060408301516109d66040860182610982565b5060608301516109e96060860182610982565b508091505092915050565b6000610a008383610991565b905092915050565b6000602082019050919050565b6000610a208261088c565b610a2a8185610897565b935083602082028501610a3c856108a8565b8060005b85811015610a785784840389528151610a5985826109f4565b9450610a6483610a08565b925060208a01995050600181019050610a40565b50829750879550505050505092915050565b60006020820190508181036000830152610aa48184610a15565b905092915050565b610ab581610978565b8114610ac057600080fd5b50565b600081359050610ad281610aac565b92915050565b600060208284031215610aee57610aed6106bd565b5b6000610afc84828501610ac3565b91505092915050565b7f4e487b7100000000000000000000000000000000000000000000000000000000600052602260045260246000fd5b60006002820490506001821680610b4c57607f821691505b602082108103610b5f57610b5e610b05565b5b50919050565b60008190508160005260206000209050919050565b60006020601f8301049050919050565b600082821b905092915050565b600060088302610bc77fffffffffffffffffffffffffffffffffffffffffffffffffffffffffffffffff82610b8a565b610bd18683610b8a565b95508019841693508086168417925050509392505050565b6000819050919050565b6000610c0e610c09610c0484610978565b610be9565b610978565b9050919050565b6000819050919050565b610c2883610bf3565b610c3c610c3482610c15565b848454610b97565b825550505050565b600090565b610c51610c44565b610c5c818484610c1f565b505050565b5b81811015610c8057610c75600082610c49565b600181019050610c62565b5050565b601f821115610cc557610c9681610b65565b610c9f84610b7a565b81016020851015610cae578190505b610cc2610cba85610b7a565b830182610c61565b50505b505050565b600082821c905092915050565b6000610ce860001984600802610cca565b1980831691505092915050565b6000610d018383610cd7565b9150826002028217905092915050565b610d1a826108b8565b67ffffffffffffffff811115610d3357610d326106e2565b5b610d3d8254610b34565b610d48828285610c84565b600060209050601f831160018114610d7b5760008415610d69578287015190505b610d738582610cf5565b865550610ddb565b601f198416610d8986610b65565b60005b82811015610db157848901518255600182019150602085019450602081019050610d8c565b86831015610dce5784890151610dca601f891682610cd7565b8355505b6001600288020188555050505b505050505050565b7f4e487b7100000000000000000000000000000000000000000000000000000000600052601160045260246000fd5b6000610e1d82610978565b9150610e2883610978565b9250828201905080821115610e4057610e3f610de3565b5b92915050565b7f4e487b7100000000000000000000000000000000000000000000000000000000600052603260045260246000fdfea2646970667358221220dd15752ad41e10ecd91a66b5ccc7d76ac123ec037b7ba86a50ffe875f4fa5ad164736f6c63430008110033",
  "linkReferences": {},
  "deployedLinkReferences": {}
}